{
  "transactions": [
    {
      "hash": "0x5afd80c05462efa1b5dbc660d774a1a8d91e523affea7c2363ab5c36cc7e23ac",
      "transactionType": "CALL",
      "contractName": null,
      "contractAddress": "0x86add33c407db62b44e08bc326b4f5cd1eba575f",
      "function": "diamondCut((address,uint8,bytes4[])[],address,bytes)",
      "arguments": [
        "[(0x9c68299F246fC820CCF7554696d51112EDe6cbb9, 1, [0x579d8d6c, 0x6a256b29, 0xfcd7eef1, 0xe79c6e12, 0x3783842e, 0xc115e7ae, 0xb30f61ca]), (0x599a52C62f29CdE350dE081AcbbA4bB5DD3DC894, 1, [0xc1bc0619, 0x03a65ab6, 0xaebcf9d3, 0xb9c845ce, 0x1eeb3812, 0x70b0923d, 0x719dcf4a]), (0xe98af2ceA40f63445B19C3eB966142C03C3c9c90, 1, [0xd4dfadbf, 0xb33dc190, 0xdcc449bd]), (0xD09d44A06CE5076556181b69f91CF1686b97f612, 0, [0x1e2eaeaf, 0x35fd631a, 0xdbd035ff, 0xf135baaa, 0x9bf6645f]), (0xD09d44A06CE5076556181b69f91CF1686b97f612, 1, [0x7ac2ff7b, 0xac9650d8])]",
        "0x0000000000000000000000000000000000000000",
        "0x"
      ],
      "transaction": {
        "from": "0x5f79ee8f8fa862e98201120d83c4ec39d9468d49",
        "to": "0x86add33c407db62b44e08bc326b4f5cd1eba575f",
        "gas": "0xeae87",
        "value": "0x0",
        "input": "0x1f931c1c0000000000000000000000000000000000000000000000000000000000000060000000000000000000000000000000000000000000000000000000000000000000000000000000000000000000000000000000000000000000000000000006a0000000000000000000000000000000000000000000000000000000000000000500000000000000000000000000000000000000000000000000000000000000a000000000000000000000000000000000000000000000000000000000000002000000000000000000000000000000000000000000000000000000000000000360000000000000000000000000000000000000000000000000000000000000044000000000000000000000000000000000000000000000000000000000000005600000000000000000000000009c68299f246fc820ccf7554696d51112ede6cbb9000000000000000000000000000000000000000000000000000000000000000100000000000000000000000000000000000000000000000000000000000000600000000000000000000000000000000000000000000000000000000000000007579d8d6c000000000000000000000000000000000000000000000000000000006a256b2900000000000000000000000000000000000000000000000000000000fcd7eef100000000000000000000000000000000000000000000000000000000e79c6e12000000000000000000000000000000000000000000000000000000003783842e00000000000000000000000000000000000000000000000000000000c115e7ae00000000000000000000000000000000000000000000000000000000b30f61ca00000000000000000000000000000000000000000000000000000000000000000000000000000000599a52c62f29cde350de081acbba4bb5dd3dc894000000000000000000000000000000000000000000000000000000000000000100000000000000000000000000000000000000000000000000000000000000600000000000000000000000000000000000000000000000000000000000000007c1bc06190000000000000000000000000000000000000000000000000000000003a65ab600000000000000000000000000000000000000000000000000000000aebcf9d300000000000000000000000000000000000000000000000000000000b9c845ce000000000000000000000000000000000000000000000000000000001eeb38120000000000000000000000000000000000000000000000000000000070b0923d00000000000000000000000000000000000000000000000000000000719dcf4a00000000000000000000000000000000000000000000000000000000000000000000000000000000e98af2cea40f63445b19c3eb966142c03c3c9c90000000000000000000000000000000000000000000000000000000000000000100000000000000000000000000000000000000000000000000000000000000600000000000000000000000000000000000000000000000000000000000000003d4dfadbf00000000000000000000000000000000000000000000000000000000b33dc19000000000000000000000000000000000000000000000000000000000dcc449bd00000000000000000000000000000000000000000000000000000000000000000000000000000000d09d44a06ce5076556181b69f91cf1686b97f6120000000000000000000000000000000000000000000000000000000000000000000000000000000000000000000000000000000000000000000000000000006000000000000000000000000000000000000000000000000000000000000000051e2eaeaf0000000000000000000000000000000000000000000000000000000035fd631a00000000000000000000000000000000000000000000000000000000dbd035ff00000000000000000000000000000000000000000000000000000000f135baaa000000000000000000000000000000000000000000000000000000009bf6645f00000000000000000000000000000000000000000000000000000000000000000000000000000000d09d44a06ce5076556181b69f91cf1686b97f6120000000000000000000000000000000000000000000000000000000000000001000000000000000000000000000000000000000000000000000000000000006000000000000000000000000000000000000000000000000000000000000000027ac2ff7b00000000000000000000000000000000000000000000000000000000ac9650d8000000000000000000000000000000000000000000000000000000000000000000000000000000000000000000000000000000000000000000000000",
        "nonce": "0x23c",
        "chainId": "0x279f"
      },
      "additionalContracts": [],
      "isFixedGasLimit": false
    }
  ],
  "receipts": [
    {
      "status": "0x1",
      "cumulativeGasUsed": "0x30efd6",
      "logs": [
        {
          "address": "0x86add33c407db62b44e08bc326b4f5cd1eba575f",
          "topics": [
            "0x8faa70878671ccd212d20771b795c50af8fd3ff6cf27f4bde57e5d4de0aeb673"
          ],
          "data": "0x0000000000000000000000000000000000000000000000000000000000000060000000000000000000000000000000000000000000000000000000000000000000000000000000000000000000000000000000000000000000000000000006a0000000000000000000000000000000000000000000000000000000000000000500000000000000000000000000000000000000000000000000000000000000a000000000000000000000000000000000000000000000000000000000000002000000000000000000000000000000000000000000000000000000000000000360000000000000000000000000000000000000000000000000000000000000044000000000000000000000000000000000000000000000000000000000000005600000000000000000000000009c68299f246fc820ccf7554696d51112ede6cbb9000000000000000000000000000000000000000000000000000000000000000100000000000000000000000000000000000000000000000000000000000000600000000000000000000000000000000000000000000000000000000000000007579d8d6c000000000000000000000000000000000000000000000000000000006a256b2900000000000000000000000000000000000000000000000000000000fcd7eef100000000000000000000000000000000000000000000000000000000e79c6e12000000000000000000000000000000000000000000000000000000003783842e00000000000000000000000000000000000000000000000000000000c115e7ae00000000000000000000000000000000000000000000000000000000b30f61ca00000000000000000000000000000000000000000000000000000000000000000000000000000000599a52c62f29cde350de081acbba4bb5dd3dc894000000000000000000000000000000000000000000000000000000000000000100000000000000000000000000000000000000000000000000000000000000600000000000000000000000000000000000000000000000000000000000000007c1bc06190000000000000000000000000000000000000000000000000000000003a65ab600000000000000000000000000000000000000000000000000000000aebcf9d300000000000000000000000000000000000000000000000000000000b9c845ce000000000000000000000000000000000000000000000000000000001eeb38120000000000000000000000000000000000000000000000000000000070b0923d00000000000000000000000000000000000000000000000000000000719dcf4a00000000000000000000000000000000000000000000000000000000000000000000000000000000e98af2cea40f63445b19c3eb966142c03c3c9c90000000000000000000000000000000000000000000000000000000000000000100000000000000000000000000000000000000000000000000000000000000600000000000000000000000000000000000000000000000000000000000000003d4dfadbf00000000000000000000000000000000000000000000000000000000b33dc19000000000000000000000000000000000000000000000000000000000dcc449bd00000000000000000000000000000000000000000000000000000000000000000000000000000000d09d44a06ce5076556181b69f91cf1686b97f6120000000000000000000000000000000000000000000000000000000000000000000000000000000000000000000000000000000000000000000000000000006000000000000000000000000000000000000000000000000000000000000000051e2eaeaf0000000000000000000000000000000000000000000000000000000035fd631a00000000000000000000000000000000000000000000000000000000dbd035ff00000000000000000000000000000000000000000000000000000000f135baaa000000000000000000000000000000000000000000000000000000009bf6645f00000000000000000000000000000000000000000000000000000000000000000000000000000000d09d44a06ce5076556181b69f91cf1686b97f6120000000000000000000000000000000000000000000000000000000000000001000000000000000000000000000000000000000000000000000000000000006000000000000000000000000000000000000000000000000000000000000000027ac2ff7b00000000000000000000000000000000000000000000000000000000ac9650d8000000000000000000000000000000000000000000000000000000000000000000000000000000000000000000000000000000000000000000000000",
          "blockHash": "0x1220b323f28778a7d8f31eae2a9f81dd29e653fbf88404af5273fbb16db50541",
          "blockNumber": "0x7113a8",
          "blockTimestamp": "0x67d13e1c",
          "transactionHash": "0x5afd80c05462efa1b5dbc660d774a1a8d91e523affea7c2363ab5c36cc7e23ac",
          "transactionIndex": "0x23",
          "logIndex": "0x27",
          "removed": false
        }
      ],
      "logsBloom": "0x00000000000000000000000000000000000000000000000000010000000000000000000000000000000000000000000000000000000000000000000000020000000000000000000000000000000000000000000001000000000800000000000000000000000000000000000000000000000080000000000000000000000000000020000000000000000000000000000000000000000000000000000000000000000000000000000000000000000000000000000000000000000000000000000000000000000000000000000000000000000000000000000000000000000000000000000000000000000000000000000000000000000000000000000000000000",
      "type": "0x2",
      "transactionHash": "0x5afd80c05462efa1b5dbc660d774a1a8d91e523affea7c2363ab5c36cc7e23ac",
      "transactionIndex": "0x23",
      "blockHash": "0x1220b323f28778a7d8f31eae2a9f81dd29e653fbf88404af5273fbb16db50541",
      "blockNumber": "0x7113a8",
      "gasUsed": "0xeae87",
      "effectiveGasPrice": "0xba43b7401",
      "from": "0x5f79ee8f8fa862e98201120d83c4ec39d9468d49",
      "to": "0x86add33c407db62b44e08bc326b4f5cd1eba575f",
      "contractAddress": null
    }
  ],
  "libraries": [],
  "pending": [],
  "returns": {},
  "timestamp": 1741766176,
  "chain": 10143,
  "commit": "2a5334c"
}